:10000000D4C067C2EDC0ECC0EBC0EAC0E9C0E8C034
:10001000E7C03FCAE5C029C8E3C0E2C077CAE0C074
:10002000DFC0DEC0DDC0BDC8C3C8D8C86DC96CC9DB
:10003000A7C86AC969C968C967C966C965C964C901
:1000400063C962C92AC92DC930C933C936C93BC978
:100050003FC94EC944C94CC942C941C940C94CC92C
:1000600053C952C9E4C8E7C8EAC8EDC8F0C8F5C822
:10007000F9C8FFC802C905C908C909C90CC947C9D7
:1000800043C942C9C0C8C3C8C6C8DDC8E0C8E5C8BE
:10009000E9C8C5C8F2C8C7C8F8C8F9C8FCC812037F
:1000A00061007600720064006F00700065007200ED
:1000B00014034100560052002D0044006F007000F0
:1000C0006500720012036F00620064006500760034
:1000D0002E0061007400040309040853544B3530AA
:1000E000305F32000600FF0901A101150026FF0064
:1000F00075088501950E0900B202018502951E0959
:1001000000B202018503953E0900B2020185049503
:100110007E0900B202018505953E0900B20201C0C8
:10012000090222000101000064090400000103002B
:100130000000092101010001223C0007058103089C
:10014000000A1201100102000008C016E1050001BA
:1001500001020301090243000201000064090400D6
:10016000000102020100052400100104240202051E
:100170002406000105240103010705830308006428
:1001800009040100020A000000070501020800003E
:10019000070581020800001201010100000008C0EB
:1001A00016DF050001010200010011241FBECFE58A
:1001B000D4E0DEBFCDBF10E0A0E6B0E0E2EBF9E1B5
:1001C00002C005900D92AC38B107D9F713E0ACE846
:1001D000B0E001C01D92AE3EB107E1F751DBE7CBC5
:1001E0000FCF1F93CF93DF93162FEA01288124FFAF
:1001F00005C0298138E82327298302C02AE52883FE
:100200009E012E5F3F4F412FFC01D90181918D93BB
:1002100041501416DCF3C901612F57D11C5F1883BC
:10022000DF91CF911F91089547EE52E0DADF0895F4
:1002300042E153E0D6DF0895CF93DF936091F80257
:10024000635067FDB9C08091F502CCE0D0E0C81BD7
:10025000D109C450DD4F8091F402803118F4CE01F1
:10026000F9DAA8C08D3209F095C0683009F0A2C053
:1002700083EC8093DC028AE58093600010928C000E
:100280008881807619F0CE01A6D971C09A8110922A
:10029000E5028981882331F41092E60225EE32E0EE
:1002A00082E060C0853019F49093F90258C086301E
:1002B000F1F58B81813049F1823039F1833019F5C4
:1002C000992341F486ED90E09093F7028093F60233
:1002D00084E029C0913019F484EC90E00EC0923093
:1002E00041F480EB90E09093F7028093F60284E172
:1002F0001AC09330B9F48EE990E09093F70280939E
:10030000F60282E110C0813219F4CE0140D90BC04F
:10031000823241F484EE90E09093F7028093F602EB
:100320008CE301C080E090E490938C0020C0883082
:1003300079F0893019F49093FB0211C08A3059F09A
:100340008B3069F483EC8093E8028093130307C039
:100350002BEF32E002C025EE32E081E003C025EE53
:1003600032E080E03093F7022093F60209C08F3F1D
:1003700039F4988197FD8E8190E890938C0007C0A6
:100380009F81992321F49E81981708F4892F8093E7
:10039000610010C080918C0087FF0CC0CE01EAD9AB
:1003A0008F3F21F48EE18093600004C0882311F018
:1003B000109261001092F8028091600084FF52C098
:1003C000809161008F3F09F44DC0C82F893008F03B
:1003D000C8E08C1B809361008091DC0298E889273B
:1003E0008093DC02CC2369F120918C0027FF08C0A8
:1003F0008DED92E06C2F21D9C82F893068F521C08E
:100400008091F6029091F70226FF0AC0FC012C2F82
:10041000ADEDB2E034913D9331962150D9F708C04B
:10042000DC012C2FEDEDF2E03D9131932150E1F70D
:1004300001962C2F2150820F911D9093F7028093EB
:10044000F6028DED92E06C2F40D0CC5FCC3041F0C5
:100450008FEF8093610004C08FEF80936100CEE145
:10046000C093600084E190B39C7031F48150D9F75F
:100470001092F9021092F302DF91CF91089585B79F
:10048000836085BF8BB780648BBF83EC8093E80269
:10049000809313038AE58093E70280931203089503
:1004A000A82FB92F80E090E041E050EA609530E05D
:1004B00009C02D9182279795879510F0842795275D
:1004C000305EC8F36F5FA8F30895EADF8D939D93C4
:1004D0000895CF93CFB7CF93C395839BE9F7839BC1
:1004E00009C0839B07C0839B05C0839B03C0839B7C
:1004F00001C0A6C0DF93C091F502DD27C450DD4FD7
:10050000839B02C0DF91EBCF2F930F931F9300B318
:100510002FEF03FB20F94F933F9310B34FEF0127C9
:1005200003FB21F93BE031C04E7F012F10B3216066
:1005300028C0102F4D7F2260000000B329C04B7FE0
:100540002460012F000010B32BC010B3477F286038
:100550002AC04F7E00B320612CC04F7D10B32062B3
:100560002FC04F7B00B3206432C0422700B34993B1
:100570004FEF0000102713FB20F910B31C70C9F1D6
:10058000297F91F2012703FB21F900B3237F89F230
:10059000315058F1102713FB22F910B3277E79F25E
:1005A000012703FB23F92F7C81F200B3102713FBF3
:1005B00024F92F7971F200C010B3012703FB25F94C
:1005C0002F7359F200C000B3102713FB26F9223015
:1005D00040F200C010B3012703FB27F9243028F6AE
:1005E0004F77206810B30000F9CF10E41ABF00273E
:1005F0001CC03B503195C31BD04010E41ABF08818A
:10060000033C11F10B3401F12091F3021981110F18
:100610001213EDCF4A81441F093659F10D3211F002
:10062000013E29F74F7009F0042F0093FA023F9121
:100630004F911F910F912F91DF91CAB7C6FD4CCFFB
:10064000CF91CFBFCF9118952091FA02222379F351
:100650001091F8021123C1F53430C2F13093F80241
:100660002093F4021091F5023BE0311B3093F50228
:100670002DC00091F80201303CF50AE54F7049F4B5
:100680003091600034FD24C000936000CCEDD2E0D6
:1006900023C0433049F03091E70234FD19C0009384
:1006A000E702C8EED2E018C03091120334FD10C04A
:1006B00000931203C3E1D3E00FC02795A8F4515073
:1006C000A9F4220F0000F9CF4AE503C042ED01C0B2
:1006D000432FC4E1D0E032E011B31C60939A11BB08
:1006E00002B320E41CE05F93012756E002BB27958C
:1006F00020F4515021F4220FF9CF012756E00000D9
:100700003B5A02BBD0F2279528F4515029F4220F0E
:100710000000F9CF012756E0279502BB20F4515085
:1007200021F4220FF9CF012756E02991332302BB90
:1007300021F6037F1091F902110FC651D04002BB80
:1007400011F01093F30210E41ABF086011B3137F85
:10075000402F437F5F9100C000C002BB11BB42BB72
:1007600066CF92B39F7992BBC39A00C0C39838E01A
:1007700020E0220F8799216067FD906487FD9062D9
:1007800092BBC39A9F79880F660F00C0C3983150FF
:1007900081F792BBC39A00C000C0C39800C000C0DC
:1007A000C39A00C000C0C398822F0895CF93C82F6A
:1007B0008CE464E0D6DF8C2F886660E0D2DF8C2F7B
:1007C0008C6660E0CEDFCF910895CF93DF93D82F72
:1007D000C62F8CE468E0C5DF8CE06D2FC2DF8C2F64
:1007E000886660E0BEDF8C2F8C6660E0BADFDF9148
:1007F000CF91089580918E007BD604C08091EC0348
:10080000882321F0879BFACF80E0089580E808953F
:10081000CF93DF93C82FD42F8CE4A3DF8CE26C2F0F
:10082000A0DF8D2F846660E09CDF8D2F8C6660E0FA
:1008300098DFE0DFC82F8CE460E093DF8C2FDF913E
:10084000CF910895CF93C82F8CE460E88ADF84E6C7
:1008500060E087DF8CE660E084DF80918E00882393
:1008600019F0C8DFC82F03C08C2F4AD6C0E08CE433
:1008700060E077DF8C2FCF91089510928D00C59A9C
:1008800085B58F7E85BDAD9AC0988F9A87E0F6D5E5
:10089000AD98BA98C29A82E0F1D58F9888E3EED5E8
:1008A0000895C298BA9AAD9A82B38F7982BBC09AE2
:1008B000AD98C598089581E080938D0008950895BE
:1008C000FC01808180938E008181BCDF0895FC0152
:1008D000818180938E008AE0B5DF08959F92AF9268
:1008E000BF92CF92DF92EF92FF920F931F93CF931D
:1008F000DF93FC01C62E838180938E00EF01249646
:10090000D1809280892D869581958770AA24AA949A
:1009100002C0A69481508823E1F7CC2019F4A69454
:1009200060E101C061E18CE41CDFBB24E92CFF2401
:10093000870101701070A8958CE06091E80311DFC9
:100940000115110549F18CE268810BDFCC2031F0F3
:1009500021968DE660E005DF8CE608C0698122966D
:100960008CE3FFDE8DE760E0FCDE8CE760E0F9DE23
:100970008091E8038F5F8A21C9F597FE37C08CE12B
:100980006091E903EEDE84E660E0EBDE8CE660E099
:10099000E8DE30DFB82E2AC08CE16091E903E1DEA9
:1009A0008CE26881DEDECC2049F021968DE660E0A5
:1009B000D8DE84E660E0D5DE8CE612C084E660E036
:1009C000D0DE8CE660E0CDDE15DFB82E8823D9F4CA
:1009D000698122968CE3C5DE84E760E0C2DE8CE7A5
:1009E00060E0BFDE07DFB82E882369F4A0D3CC20F7
:1009F00011F4DA9419F0DA9409F09DCF011511057C
:100A000011F0E6FE03C08CE460E0ABDE8B2DDF91DD
:100A1000CF911F910F91FF90EF90DF90CF90BF90FB
:100A2000AF909F900895DF92EF92FF920F931F93E4
:100A3000CF93DF93FC01D42E80819181EB01199239
:100A4000E92EF82E442311F063E001C062E08CE44B
:100A500088DE870121C0A8958CE06091E80381DEE3
:100A60008CE16091E9037DDE88E660E07ADE8CE669
:100A700060E077DE8883DD2021F021960150104070
:100A80000AC088E760E06DDE8CE760E06ADE89839B
:100A90002296025010404BD301151105E1F6188241
:100AA000C7010296DF91CF911F910F91FF90EF90B8
:100AB000DF900895FC01828180938E0080818823DD
:100AC00021F0813021F440E103C040E001C042E068
:100AD000818160E49DDE0895FC01828180938E0017
:100AE000818160E240E094DE0895FC01838180937F
:100AF0008E008081882331F0813031F0823031F4F2
:100B000042E005C040E003C040E101C042E1818114
:100B100060E47EDE0895FC01838180938E008181F4
:100B200060E240E075DE0895FC018081882329F0B1
:100B3000813029F0823031F403C080E001C082E1CD
:100B400035DE089580EC089580E130DE0895FC01E3
:100B5000808160E03ADE089580E060E136DE08954D
:100B6000DF92EF92FF920F931F93CF93DF93EC01ED
:100B7000F62ED0908F00F89405B30F7E10E017C0CA
:100B8000199188E0E82E17FD006105BB78948D2D42
:100B900075D4F894AA9A110F0F7E9B9B11607894DC
:100BA0008D2D6CD4F894AA98EA9469F7FA94FF20F2
:100BB00039F77894812FDF91CF911F910F91FF909A
:100BC000EF90DF90089595B39B7E95BBAD9A98D436
:100BD00085B58F7E85BDC498BC9AAD98C59808959B
:100BE000CF9386D4C0EF04C08091EC03882361F0DA
:100BF000C09390001092910080E990E064E0B0DF33
:100C000080FDF2CF80E001C081E8CF910895DF92AE
:100C1000EF92FF920F931F93CF93DF93EC012091FC
:100C20007A004981849902C08DE00AC0222311F024
:100C3000213019F410928F0019C0223021F481E084
:100C400080938F0013C0233011F482E0F9CF30E09D
:100C50002F5F3F4FC90160E170E07BD6E62FC901ED
:100C600064E070E076D6E60FE0938F00C59A85B316
:100C70008B7E85BBAD9ABC98C49A85B5806185BDD5
:100C8000842F3ED480918F00F9D3AD9880918F004E
:100C9000F5D3AD9A8A8134D491E2F92E8E01095FA1
:100CA0001F4F24E0E22E1DC0A895C8016E8158DFB9
:100CB000D82E8E81843050F4282F30E0295F3F4FAA
:100CC0006E2D681BCE01820F931F4ADF8D81D816CF
:100CD00071F0AA9A80918F00D1D3AA9880918F0049
:100CE000CDD3FA9409F780E06EDF80EC01C080E09C
:100CF000DF91CF911F910F91FF90EF90DF900895BA
:100D0000CF93DF93EC0188815EDF8981F9D3DF9196
:100D1000CF9108951F93CF93DF93EC011881029632
:100D200064E01EDF8981882331F01A3008F41AE06C
:100D3000812F56DF03C0812FE3D380E0DF91CF9175
:100D40001F9108954F925F926F927F928F929F9220
:100D5000AF92BF92CF92DF92EF92FF920F931F93C9
:100D6000CF93DF930F92CDB7DEB72C01F62EFC01A7
:100D7000B080A180828180FF05C050E4C52E60E272
:100D8000E62E04C038E0C32E44E0E42EFF2099F4A0
:100D90008091EB0387FF0FC08DE480939000109249
:100DA00091008091EA03809392001092930080E971
:100DB00090E064E0D5DE00E010E0350108946108C1
:100DC00071086AC0A8958091E90380939100809191
:100DD000E803809392004201800E911EF401818508
:100DE00080939300F2018481FF2021F4877F00FF2C
:100DF00004C0886089839BD189818093900080E9B9
:100E000090E064E0ADDEF201828180FF0CC0061547
:100E10001705D8F187FF39C085818093900080E95C
:100E200090E064E09DDEF20182819E2D982329F1FD
:100E3000F401D184F2018781D81629F0FF2029F02E
:100E40008085D81611F4F2011EC0F2018681FF20C0
:100E500019F4877F00FD886080939000F201838100
:100E600047D304C08091EC03882389F080E990E0A7
:100E700064E076DE8D15B1F708C08C21F20119F01F
:100E80008381AEDE05C083813BD380E001C080E872
:100E90000F5F1F4F882329F40A151B0508F492CF12
:100EA00080E00F90DF91CF911F910F91FF90EF9015
:100EB000DF90CF90BF90AF909F908F907F906F907A
:100EC0005F904F900895BF92CF92DF92EF92FF9282
:100ED0000F931F93CF93DF93EC017B01D42E1092DD
:100EE0009300442381F48091EB0387FF0CC080E9D9
:100EF00090E02DE420939000FC0111822091EA0300
:100F0000228364E02DDEC880B98087010F5F1F4F08
:100F1000F7011082EA80C0E0D0E01EC0A895809161
:100F2000E903809391008091E80380939200DD2093
:100F300041F4C0FF03C088E0E82A03C0E7EFEE22D7
:100F400001C0F5D0E092900080E990E064E008DE16
:100F5000F80181938F0121968B2D9C2DC817D907FD
:100F6000E8F2F80110820296DF91CF911F910F9164
:100F7000FF90EF90DF90CF90BF90089564E0F0DD98
:100F800080E008951F93CF93DF93EC010196688171
:100F9000E7DD182F8881843050F4282F30E02F5F50
:100FA0003F4F64E0681BCE01820F931FD9DD812F74
:100FB000DF91CF911F910895AF92BF92CF92DF92B0
:100FC000EF92FF920F931F93CF938C015B01FC0173
:100FD0008081C2808C1508F4C82EC80103966C2D40
:100FE000BFDD75010894E11CF11CC0E0DD2411C0D7
:100FF000C9018C0D9D1D0396800F911F61E0B0DD2E
:10100000F8019181C91718F4F70181937F01A89520
:10101000CF5F2C2F30E0F801808190E08C199D0982
:10102000281739072CF30BC01092900080E990E04C
:1010300061E096DDF70181937F01A895CF5FF8010C
:101040008181C81788F3F5011082F7011082F80139
:10105000818190E00296CF911F910F91FF90EF90C8
:10106000DF90CF90BF90AF90089520909400209291
:101070002A0078941F920F920FB60F9211242F938B
:101080008F939F93EF93FF939CB1E0911F038E2F5B
:101090008F5F883C08F080E020911E03821731F0BA
:1010A000F0E0E25EFC4F928380931F0380919400F6
:1010B00080688AB9FF91EF919F918F912F910F9046
:1010C0000FBE0F901F90189586E289B988E980932A
:1010D00094008AB908952BE12093AE0120919600E7
:1010E0002093AF019093B0018093B1012EE0209343
:1010F000B2011092C8021092C7029C012A5F3F4FB2
:101100003093CA022093C9029C012B5F3F4F40E0FD
:10111000EEEAF1E003C05191452701975FEF8B3F65
:101120009507C9F7F901E255FE4F40830895809174
:10113000E8039091E903A091EA03B091EB030196D3
:10114000A11DB11D8093E8039093E903A093EA03E6
:10115000B093EB030895CF93DF93C2E0D0E080918A
:101160009A008093B3011092B40190E001978C3300
:10117000910508F0C9C08D5E9F4F8F939F9308958E
:1011800080919B008093EB0380919C008093EA0305
:1011900080919D008093E90380919E008093E803F5
:1011A000B6C085EB91E06AED70E0FAD38BE029C020
:1011B000E0919B0080919C00E63939F425B5982F89
:1011C0009770287F922B95BD03C0E73909F483BD42
:1011D000EF71F0E0EE59FF4F808399C0E0919B00E2
:1011E000E63919F485B5877009C0E73911F483B57C
:1011F00005C0EF71F0E0EE59FF4F80818093B5019B
:1012000083E0C82F84C08BE990E037DB80C08BE996
:1012100090E047DB7CC08BE990E052DB76C08BE945
:1012200090E048DC72C08BE990E056DC6EC08BE940
:1012300090E041DB6CC08BE990E041DB68C08BE95A
:1012400090E045DB62C08BE990E060E009C08BE98B
:1012500090E064EB71E040E00AC08BE990E061E06F
:101260003DDB53C08BE990E064EB71E041E0DBDBF8
:1012700048C08BE990E039DC48C08BE990E054DC51
:10128000BDCF8BE990E047DC40C05EDCB7CF8BE997
:1012900090E05DDCB3CF60DCB1CF8BE990E0B7DCF0
:1012A00034C08BE990E02CDD32C08BE990E032DD78
:1012B0002CC08BE990E060E009C08BE990E064EB22
:1012C00071E040E00AC08BE990E061E03BDD1DC0C9
:1012D0008BE990E064EB71E041E0F5DD12C08BE951
:1012E00090E050DE8093B5011092B60184E089CF82
:1012F0008BE990E043DE09C08BE990E064EB71E09C
:101300005BDEEC01219603C080EC8093B401CE013A
:10131000E2DEDF91CF9108959091ED03992321F4BE
:101320001092CC021092CB022091CB023091CC02D1
:101330002115310561F48B3109F064C0809395006B
:1013400081E090E09093CC028093CB025BC091E06F
:101350002931390708F052C0F901EB56FF4F80835D
:101360002F5F3F4F3093CC022093CB0224303105C6
:10137000B1F4809198008093CD0280919700809382
:10138000CE028091CD029091CE0206969093CE022D
:101390008093CD0221E08A319207A0F12FC0253041
:1013A000310519F48E3051F52DC02530310550F13D
:1013B0008091CD029091CE022817390719F505C00A
:1013C000919189272150304003C0E5E9F0E080E0A9
:1013D00021153105A9F71092CC021092CB02882377
:1013E00021F481E08093CF020DC080EB8093B301A4
:1013F0008093B40182E090E06EDE04C01092CC02D3
:101400001092CB0288EC8093ED0308958091C9027D
:101410009091CA022091C7023091C802821B930B9F
:1014200008952091C9023091CA0221153105D9F0E1
:101430004091C7025091C802FA01E255FE4F8081E7
:101440004F5F5F4F5093C8024093C7024217530744
:1014500040F01092CA021092C9021092C802109273
:10146000C70290E008958FEF9FEF08958091CF021B
:10147000882319F01092CF026EDE0895F89491E05F
:1014800090BF92B7890F789492B7981B97FDFCCFC5
:10149000089578941F920F920FB60F9211248F9394
:1014A000F8948091EC03882329F08091EC0381501B
:1014B0008093EC037894F89480918200815080931B
:1014C0008200882371F489E480938200789480916B
:1014D000ED03882339F08091ED0381508093ED0373
:1014E00001C078948F910F900FBE0F901F901895A8
:1014F000982F969596958F5F891B8093EC0308959E
:10150000F7DF8091EC038823E1F7089578941F9228
:101510000F920FB60F9211242F938F939F9384B144
:1015200095B127B12F70D1F4909581959F4F25E00B
:10153000880F991F2A95E1F7865D974918161906B5
:101540003CF421E08B3992072CF08AE991E002C04B
:1015500081E090E09BBD8ABD81EC09C0089624E043
:10156000969587952A95E1F78093760080EC87B968
:10157000369A9F918F912F910F900FBE0F901F90D1
:10158000189580EC87B98DE886B9369A0895209130
:10159000D002FC018381222341F0813061F082304E
:1015A00071F482E220E231E011C0813061F482E125
:1015B00022E431E00BC082E127E931E007C089E095
:1015C00022E331E003C083E424E531E03093F70205
:1015D0002093F6020895FC01808180768032D9F450
:1015E0009091D0028181992381F0813011F089306E
:1015F00001F582818093D102853011F483E001C02E
:1016000081E08093D2028FEF08958052823088F477
:101610001092D202F8CF803461F48181813029F4B4
:1016200082815D9BFECF8CB904C0823021F484E0BE
:10163000E8CF80E0089580E008950F931F93CF9343
:10164000DF93EC01162F8091D202882349F4E3E85E
:10165000F0E087E0019009928150E1F787E085C0D2
:101660008430D9F40FC0E92FF0E0E25EFC4F228114
:101670009F5F90931E03983C10F010921E032993D5
:101680008F5F01C080E0811709F46FC090911E0345
:1016900020911F03921739F768C0833009F03FC0CB
:1016A0008091D1028530A1F4888390911E0320910E
:1016B0001F03822F891B291708F488538093D302B4
:1016C00089832296912F925081E08093D10201C0AC
:1016D000962F8091D102882309F446C08091D302CD
:1016E000815001C0822F8F3F19F48093D30233C001
:1016F00020911E03E22FF0E0E25EFC4F32812F5F6B
:1017000020931E03283C10F010921E033993915031
:10171000282F2150992331F78093D30225C0982F89
:1017200091509230F8F4813071F48091D102888325
:101730006DDE91118FEF89832296012F025082E096
:101740008093D20201C0062F8091D102882361F0DC
:1017500068DE97FF03C01092D10206C08993015042
:10176000B9F702C080E001C0812FDF91CF911F91B6
:101770000F910895EF92FF921F93CF93DF930F92F3
:10178000CDB7DEB7DC018091D202882359F48BE417
:101790008093E802E3E8F0E087E00D900192815049
:1017A000E1F74EC0833001F581E0683009F480E054
:1017B0009091D102953041F411969C911197919599
:1017C0009093D102129662509091D1029923D9F14F
:1017D0009D915D9BFECF9CB99091D1029F5F9093AC
:1017E000D102615089F72FC0982F9150923040F567
:1017F00011E0683009F410E0813079F411968C9191
:1018000011978093D10282E0E82EF12CEA0EFB1EA4
:10181000625082E08093D20201C07D018091D102AA
:10182000882381F0F70181917F01698375DD8091C3
:10183000D10281508093D1026981615079F702C051
:1018400081E001C0812F0F90DF91CF911F91FF9018
:10185000EF9008950F931F93CF93DF930F92CDB71F
:10186000DEB78C01F80181918F01698355DD6981B3
:101870006150C1F70F90DF91CF911F910F910895A3
:10188000CF93DF930F92CDB7DEB72EE088E190E0E3
:101890000FB6F894A89581BD0FBE21BD15DCA49AA2
:1018A000AC9AA498AC9881E09C9980E08093D00297
:1018B00081E088BB8FE387BB88E085BB84E384BB82
:1018C00083E182BB81E681BB8B9A80E007C0A8954B
:1018D000E7EBFBE03197F1F700C000008150B9F76A
:1018E0008B9883E083BF81E089BF82E88FBD29E0C8
:1018F0002EBD81E090E09BBD8ABD25BD82E083BD09
:1019000040DEBDD57894A89597D4B0DD8091D00203
:101910008823C9F78091E70284FFF5CF04ED12E038
:1019200060E006C0F80181938F016F5F683059F065
:10193000698377DD698197FFF5CF662321F4809174
:101940008A00882301F360938A0084ED92E06CD4CE
:10195000DACF97FB092E07260AD077FD04D00CD0EA
:1019600006D000201AF4709561957F4F0895F6F720
:10197000909581959F4F0895AA1BBB1B51E107C00D
:10198000AA1FBB1FA617B70710F0A61BB70B881F0F
:10199000991F5A95A9F780959095BC01CD0108959E
:1019A000FB01DC0105900D920020E1F70895F89409
:0219B000FFCF67
:1019B2005AFF0000000000000000000000000000CC
:1019C200000001020400320001800200AA000000AF
:0C19D2000000018025000000000801005A
:00000001FF
