:100000000C94E7000C9488020C9404010C940401F5
:100010000C9404010C9404010C9404010C9404014C
:100020000C9404010C9404010C9404010C9404013C
:100030000C9404010C9404010C9404010C9404012C
:100040000C944F080C9404010C9462060C94040167
:100050000C9404010C9404010C9404010C9404010C
:100060000C9404010C94040106070F0728077F076E
:100070007F07F5067F077F077F077F077F077F07DB
:100080007F077F077F073F07440749074E0752074F
:1000900058075E07710766077107660766076607F8
:1000A00076077F077F077F077F077F077F077F0729
:1000B0007F077F077F077F077F077F077F077F0710
:1000C0008207120361007600720064006F00700006
:1000D0006500720014034100560052002D004400D8
:1000E0006F0070006500720012036F006200640010
:1000F000650076002E0061007400040309040853B3
:10010000544B3530305F32000600FF0901A1011564
:100110000026FF0075088501950E0900B2020185D1
:1001200002951E0900B202018503953E0900B20244
:10013000018504957E0900B202018505953E0900FE
:10014000B20201C00902220001010000640904009A
:10015000000103000000092101010001223C000709
:1001600005810308000A1201100102000008C016F0
:10017000E105000101020301090243000201000040
:1001800064090400000102020100052400100104BA
:10019000240202052406000105240103010705834A
:1001A0000308006409040100020A000000070501B9
:1001B0000208000007058102080000120101010089
:1001C000000008C016DF0500010102000100112433
:1001D0001FBECFEFD4E0DEBFCDBF11E0A0E0B1E0A5
:1001E000E4E6F5E102C005900D92AC32B107D9F713
:1001F00014E0ACE2B1E001C01D92AC38B107E1F708
:100200000E94070A0C94B00A0C9400001F93CF932D
:10021000DF93162FEA01288124FF05C0298138E8E1
:100220002327298302C02AE528839E012E5F3F4FA2
:10023000412FFC01D90181918D9341501416DCF3BB
:10024000C901612F0E9484021C5F1883DF91CF9146
:100250001F91089545E853E00E940601089540EB80
:1002600053E00E9406010895CF93DF9360919603B7
:10027000635067FDBEC080919303CCE0D0E0C81B03
:10028000D109C656DC4F80919203803120F4CE0113
:100290000E94F009ACC08D3209F098C0683009F0B6
:1002A000A6C083EC80937A038AE5809300011092C4
:1002B0002C018881807621F0CE010E94A70873C0AE
:1002C0009A81109283038981882331F410928403E8
:1002D00023E833E082E062C0853019F490939703FD
:1002E0005AC0863009F03FC08B81813049F182309D
:1002F00039F1833019F5992341F48AEF90E0909316
:1003000095038093940384E02AC0913019F488EE19
:1003100090E00EC0923041F484ED90E0909395030C
:100320008093940384E11BC09330C1F482EC90E08D
:10033000909395038093940382E111C0813221F45C
:10034000CE010E9483080BC0823241F488E091E024
:1003500090939503809394038CE301C080E090E434
:1003600090932C0120C0883079F0893019F4909353
:10037000990311C08A3059F08B3069F483EC809373
:1003800086038093B10307C029E933E002C023E864
:1003900033E081E003C023E833E080E0309395034D
:1003A0002093940309C08F3F39F4988197FD8E8183
:1003B00090E890932C0107C09F81992321F49E819E
:1003C000981708F4892F8093010111C080912C01A6
:1003D00087FF0DC0CE010E947B098F3F21F48EE183
:1003E0008093000104C0882311F010920101109243
:1003F00096038091000184FF54C0809101018F3FDA
:1004000009F44FC0C82F893008F0C8E08C1B8093D6
:10041000010180917A0398E8892780937A03CC239D
:1004200071F120912C0127FF09C08BE793E06C2F1D
:100430000E94DC08C82F893070F521C08091940398
:100440009091950326FF0AC0FC012C2FABE7B3E087
:1004500034913D9331962150D9F708C0DC012C2FFF
:10046000EBE7F3E03D9131932150E1F701962C2F1A
:100470002150820F911D90939503809394038BE7F5
:1004800093E06C2F0E948402CC5FCC3041F08FEF60
:100490008093010104C08FEF80930101CEE1C093EE
:1004A000000184E199B1947131F48150D9F710922F
:1004B000970310929103DF91CF910895E9E6F0E060
:1004C000808183608083E89A83EC809386038093A5
:1004D000B1038AE5809385038093B0030895A82F24
:1004E000B92F80E090E041E050EA609530E009C02B
:1004F0002D9182279795879510F084279527305E58
:10050000C8F36F5FA8F30895EADF8D939D93089574
:10051000CF93CFB7CF93DF93C3954C9BE9F74C9B19
:100520000BC04C9B09C04C9B07C04C9B05C04C9B0F
:1005300003C04C9B01C08EC06F93C0919303DD2715
:10054000C656DC4F2F9365E54C9B03C02F916F91EE
:10055000E6CF0F931F934F9320E040E15F9309B1E3
:10056000047104FB27F93F9350E03BE039C014715C
:1005700040642F77012F5F5F1EC0406819B114716E
:100580002F7752501FC0406409B12F770471D1F109
:100590005F5F00C023C0406219B12F77147191F1E1
:1005A0005F5F00C025C004711027515012F45D5FD9
:1005B0000000115027952C3F19B1C8F6147101277E
:1005C000015027952C3FC8F64227499309B1047181
:1005D00010274F73115027952C3FA8F64695469546
:1005E00019B1147179F00127015027952C3F98F625
:1005F0006B5A60F3315009B1B0F600C011E01CBB7A
:1006000000271CC03B503195C31BD04011E01CBBE0
:100610000881033C21F10B3411F1209191031981E0
:10062000110F1213EDCF4A81441F093669F10D32C3
:1006300011F0013E29F74F7009F0042F0093980341
:100640003F915F914F911F910F912F916F91CCB37B
:10065000C0FD62CFDF91CF91CFBFCF911895209190
:100660009803222369F3109196031123E9F534309E
:10067000EAF13093960320939203109193033BE0A9
:10068000311B3093930332C000919603013064F51F
:100690000AE54F7049F43091000134FD28C0009301
:1006A0000001CAE7D3E027C0433049F03091850309
:1006B00034FD1DC000938503C6E8D3E01CC0309113
:1006C000B00334FD14C00093B003C1EBD3E013C0FA
:1006D000052710E000C000000BB91AC0052710E084
:1006E000221F1DC010E021C04AE502C032ED432F99
:1006F000C4E1D0E032E01AB114615C9A0BB11AB9CE
:1007000054E120E865E320FF05270BB927951795ED
:100710001C3FF0F66695B8F7B1F720FF05270BB937
:10072000279517951C3FD0F62795179517FF052796
:1007300000001C3F0BB9B0F629913A9519F70B7ED2
:1007400010919703110FC651D0400BB911F01093BF
:10075000910311E01CBB00611AB11B7E402F4B7E40
:1007600054E05A95F1F70BB91AB94BB969CFDF923A
:10077000EF92FF920F931F93CF93DF93EC01F62E2E
:10078000D0902D01F89405B1077F10E019C01991A0
:1007900088E0E82E17FD086005B978948D2D0E9439
:1007A0004408F8942D9A110F077F1C9911607894D2
:1007B0008D2D0E944408F8942D98EA9459F7FA94E4
:1007C000FF2029F77894812FDF91CF911F910F910E
:1007D000FF90EF90DF900895CF930E947E08C0EFC6
:1007E00004C080918A04882369F0C0932E0110927E
:1007F0002F018EE291E064E00E94B70380FDF1CF0B
:1008000080E001C081E8CF91089525982398219830
:1008100022982D982B9888B1877E88B9419A08959F
:10082000DF92EF92FF920F931F93CF93DF93EC0130
:1008300020911A010981222311F0213019F410921C
:100840002D0122C0223011F481E003C0233021F4B5
:1008500082E080932D0118C030E02F5F3F4FC90127
:1008600068E070E00E94820AE62FC90162E070E051
:100870000E94820A462F4E1BC90160E270E00E946E
:10088000820A460F40932D01419888B1886188B94A
:10089000219A259A239A88EC0E943C08229A802F5C
:1008A0000E943C0880912D010E9444082A9A809160
:1008B0002D010E9444082A988A810E943C0891E2F6
:1008C000F92E8E01095F1F4F24E0E22E21C0A8956A
:1008D000C8016E810E94B703D82E8E81843058F4EF
:1008E000282F30E0295F3F4F6E2D681BCE01820F0D
:1008F000931F0E94B7038D81D81681F02D9A8091A5
:100900002D010E9444082D9880912D010E944408D9
:10091000FA94E9F60E94050480EC01C080E0DF91C2
:10092000CF911F910F91FF90EF90DF900895CF939B
:10093000DF93EC010E94050489810E943C08DF914D
:10094000CF9108951F93CF93DF93EC011881029606
:1009500064E00E94B7038981882339F01A3008F4D3
:100960001AE0812F0E94EC0304C0812F0E943C08F2
:1009700080E0DF91CF911F9108954F925F926F9227
:100980007F928F929F92AF92BF92CF92DF92EF921F
:10099000FF920F931F93CF93DF930F92CDB7DEB7E4
:1009A0002C01F62EFC01B080A180828180FF05C061
:1009B00050E4C52E60E2E62E04C038E0C32E44E0C9
:1009C000E42EFF20A1F48091890487FF10C08DE4FC
:1009D00080932E0110922F01809188048093300122
:1009E000109231018EE291E064E00E94B70300E0D2
:1009F00010E0350108946108710872C0A8958091D3
:100A0000870480932F0180918604809330014201F6
:100A1000800E911EF401818580933101F201848161
:100A2000FF2021F4877F00FF05C0886089830E9432
:100A3000C806898180932E018EE291E064E00E94D5
:100A4000B703F201828180FF0EC00615170508F476
:100A500040C087FF3EC0858180932E018EE291E0E9
:100A600064E00E94B703F20182819E2D982339F140
:100A7000F401D184F2018781D81629F0FF2029F0F2
:100A80008085D81611F4F20121C0F2018681FF2081
:100A900019F4877F00FD886080932E01F201838125
:100AA0000E947E0804C080918A048823A1F08EE20F
:100AB00091E064E00E94B7038D15A9F70AC08C216C
:100AC000F20121F083810E94EC0306C083810E9421
:100AD0003C0880E001C080E80F5F1F4F882329F4A5
:100AE0000A151B0508F48ACF80E00F90DF91CF91A3
:100AF0001F910F91FF90EF90DF90CF90BF90AF903C
:100B00009F908F907F906F905F904F900895BF92CD
:100B1000CF92DF92EF92FF920F931F93CF93DF93C9
:100B2000EC017B01D42E10923101442389F4809191
:100B3000890487FF0DC08EE291E02DE420932E0101
:100B4000FC01118220918804228364E00E94B70393
:100B5000C880B98087010F5F1F4FF7011082EA80BC
:100B6000C0E0D0E020C0A8958091870480932F0139
:100B70008091860480933001DD2041F4C0FF03C0E2
:100B800088E0E82A03C0E7EFEE2202C00E94C80610
:100B9000E0922E018EE291E064E00E94B703F8013A
:100BA00081938F0121968B2D9C2DC817D907D8F2E0
:100BB000F80110820296DF91CF911F910F91FF9063
:100BC000EF90DF90CF90BF90089564E00E94B7034C
:100BD00080E008951F93CF93DF93EC010196688125
:100BE0000E94B703182F8881843058F4282F30E0F2
:100BF0002F5F3F4F64E0681BCE01820F931F0E945E
:100C0000B703812FDF91CF911F910895AF92BF92CB
:100C1000CF92DF92EF92FF920F931F93CF938C01AD
:100C20005B01FC018081C2808C1508F4C82EC801CC
:100C300003966C2D0E94B70375010894E11CF11C0A
:100C4000C0E0DD2412C0C9018C0D9D1D0396800FEC
:100C5000911F61E00E94B703F8019181C91718F450
:100C6000F70181937F01A895CF5F2C2F30E0F80129
:100C7000808190E08C199D092817390724F30CC056
:100C800010922E018EE291E061E00E94B703F7011D
:100C900081937F01A895CF5FF8018181C81780F308
:100CA000F5011082F7011082F801818190E002962F
:100CB000CF911F910F91FF90EF90DF90CF90BF9059
:100CC000AF900895209032012092C10078941F9235
:100CD0000F920FB60F9211242F938F939F93EF9340
:100CE000FF939091C600E091BD038E2F8F5F883CEB
:100CF00008F080E02091BC03821731F0F0E0E4546A
:100D0000FC4F92838093BD03809132018068809371
:100D1000C100FF91EF919F918F912F910F900FBE86
:100D20000F901F90189583E38093C40088E9809307
:100D300032018093C10008952BE120934C02209151
:100D4000340120934D0290934E0280934F022EE087
:100D50002093500210926603109265039C012A5F53
:100D60003F4F30936803209367039C012B5F3F4FF5
:100D700040E0ECE4F2E003C05191452701975FEFBA
:100D80008B3F9507C9F7F901E45BFD4F4083089558
:100D90008091860490918704A0918804B091890481
:100DA0000196A11DB11D8093860490938704A093A2
:100DB0008804B09389040895CF93DF93C2E0D0E014
:100DC00080913801809351021092520290E0019775
:100DD0008D32910508F093C08C5C9F4FFC01EE0FA3
:100DE000FF1F0590F491E02D0994809139018093C3
:100DF000890480913A018093880480913B0180931B
:100E0000870480913C01809386047CC083E592E056
:100E10006EEF70E00E94A90AFBE0CF2F73C0E09153
:100E2000390180913A01E63949F42091B100982FB7
:100E30009770287F922B9093B10004C0E73911F48A
:100E40008093B300EF71F0E0EE5FFE4F80835AC0F5
:100E5000E0913901E63921F48091B10087700AC030
:100E6000E73919F48091B30005C0EF71F0E0EE5F4F
:100E7000FE4F80818093530283E0C82F43C089E3F3
:100E800091E00E9410043CC089E391E00E94970425
:100E900039C089E391E00E94A20432C089E391E065
:100EA00060E009C089E391E062E572E040E00BC0D8
:100EB00089E391E061E00E94BD0422C089E391E0F2
:100EC00062E572E041E00E94870516C089E391E087
:100ED0000E94EA058093530210925402E4E0CE2F60
:100EE00011C089E391E00E94E5050AC089E391E021
:100EF00062E572E00E940606EC01219603C080ECD8
:100F000080935202CE010E949C06DF91CF910895FA
:100F100090918B04992321F410926A031092690333
:100F20002091690330916A032115310561F48B31F9
:100F300009F065C08093330181E090E090936A03EB
:100F4000809369035CC091E02931390708F053C0F0
:100F5000F901ED5CFE4F80832F5F3F4F30936A03B2
:100F60002093690324303105B1F4809136018093D8
:100F70006B038091350180936C0380916B0390919A
:100F80006C03069690936C0380936B0321E08A3187
:100F90009207A8F130C02530310519F48E3059F58B
:100FA0002EC02530310558F180916B0390916C0370
:100FB0002817390721F505C0919189272150304024
:100FC00003C0E3E3F1E080E021153105A9F71092B9
:100FD0006A0310926903882321F481E080936D03F2
:100FE0000EC080EB809351028093520282E090E029
:100FF0000E949C0604C010926A031092690388EC58
:1010000080938B04089580916703909168032091E9
:10101000650330916603821B930B0895209167034B
:101020003091680321153105D9F040916503509145
:101030006603FA01E45BFD4F80814F5F5F4F509381
:101040006603409365034217530740F0109268030C
:1010500010926703109266031092650390E0089562
:101060008FEF9FEF089580916D03882321F01092F8
:101070006D030E94DC0608958F5F80938A0480913F
:101080008A048823E1F70895F89491E093BD96B51A
:10109000890F789496B5981B97FDFCCF08957894A6
:1010A0001F920F920FB60F9211248F93F894809194
:1010B0008A04882329F080918A04815080938A04CD
:1010C0007894F894809122018150809322018823A2
:1010D00071F482E680932201789480918B048823B6
:1010E00039F080918B04815080938B0401C07894F7
:1010F0008F910F900FBE0F901F9018958F5F809368
:101100008A040895089520916E03FC0183812223AF
:1011100041F0813061F0823071F482E224E431E008
:1011200011C0813061F482E126E631E00BC082E13A
:101130002BEB31E007C089E026E531E003C083E412
:1011400028E731E030939503209394030895FC0140
:10115000808180768032D9F490916E0381819923C9
:1011600081F0813011F0893019F5828180936F030D
:10117000853011F483E001C081E0809370038FEF2C
:10118000089580528230A0F410927003F8CF80341A
:1011900079F48181813041F482819091C00095FF82
:1011A000FCCF8093C60004C0823021F484E0E5CFF8
:1011B00080E0089580E008950F931F93CF93DF930D
:1011C000EC01162F80917003882349F4E3E2F1E0EB
:1011D00087E0019009928150E1F787E087C0843071
:1011E000D9F40FC0E92FF0E0E454FC4F22819F5F57
:1011F0009093BC03983C10F01092BC0329938F5F2E
:1012000001C080E0811709F471C09091BC03209166
:10121000BD03921739F76AC0833009F03FC080914F
:101220006F038530A1F488839091BC032091BD03A6
:10123000822F891B291708F48853809371038983AF
:101240002296912F925081E080936F0301C0962FD8
:1012500080916F03882309F448C080917103815005
:1012600001C0822F8F3F19F48093710335C0209104
:10127000BC03E22FF0E0E454FC4F32812F5F209357
:10128000BC03283C10F01092BC0339939150282FD6
:101290002150992331F78093710327C0982F9150E3
:1012A000923008F5813079F480916F0388830E9431
:1012B000030891118FEF89832296012F025082E05B
:1012C0008093700301C0062F80916F03882369F01B
:1012D0000E940E0897FF03C010926F0306C0899307
:1012E0000150B1F702C080E001C0812FDF91CF91A2
:1012F0001F910F910895EF92FF921F93CF93DF9369
:101300000F92CDB7DEB7DC0180917003882359F4CA
:101310008BE480938603E3E2F1E087E00D90019295
:101320008150E1F753C0833021F581E0683009F442
:1013300080E090916F03953041F411969C91119744
:10134000919590936F031296625090916F03992339
:1013500009F43FC09D912091C00025FFFCCF9093E0
:10136000C60090916F039F5F90936F03615069F780
:1013700030C0982F9150923048F511E0683009F450
:1013800010E0813079F411968C91119780936F035E
:1013900082E0E82EF12CEA0EFB1E625082E0809380
:1013A000700301C07D0180916F03882389F0F701EC
:1013B00081917F0169830E94880780916F0381502A
:1013C00080936F036981615071F702C081E001C0B1
:1013D000812F0F90DF91CF911F91FF90EF90089593
:1013E0000F931F93CF93DF930F92CDB7DEB78C018E
:1013F000F80181918F0169830E948807698161509A
:10140000B9F70F90DF91CF911F910F910895CF936E
:10141000DF930F92CDB7DEB72EE088E190E00FB6F4
:10142000F894A895809360000FBE209360000E94FE
:1014300093065F9A85E08A95F1F7000089B180955F
:10144000881F8827881F80936E0315B882E084B9AF
:1014500088B98AE187B983E88BB981E08AB9549A5F
:1014600080E007C0A895EFE9FFE03197F1F700C0F1
:1014700000008150B9F7549883E085BD81E08093E6
:101480006E0082E88093800089E1809381008FE084
:1014900090E0909387008093860087E090E090939F
:1014A0008900809388000E9482080E945E027894DE
:1014B000A8950E9434010E94330880916E0388230E
:1014C000B9F78091850384FFF3CF02E713E060E072
:1014D00006C0F80181938F016F5F683061F0698306
:1014E0000E940E08698197FFF4CF662321F4809152
:1014F0002A018823E9F260932A0182E793E00E949F
:101500002A01D6CF97FB092E07260AD077FD04D0F3
:101510000CD006D000201AF4709561957F4F089585
:10152000F6F7909581959F4F0895AA1BBB1B51E13B
:1015300007C0AA1FBB1FA617B70710F0A61BB70B43
:10154000881F991F5A95A9F780959095BC01CD01E8
:101550000895FB01DC0105900D920020E1F708954C
:04156000F894FFCF2D
:101564005AFF00000000000000000000000000001E
:10157400000001020400320001800200AA00000001
:0C158400000001802500000000080100AC
:00000001FF
